:03000000020100FA
:0F0100007589107540EF7541BF75427F7543DFFC
:0F010F0075445F7545CF7546AF75473F20B718EC
:0F011E007540DF75417F7542BF7543EF75443FF4
:0F012D007545AF7546CF75475F30926930B15A4F
:0E013C0030B35A30936930B05730B257D2B456
:0E014A00854090512F30925030B14130B3417A
:0E01580030935030B03E30B23E854190512F72
:0F01660030923930B12A30B32A30933930B02774
:0E01750030B227854290512F30922230B113C4
:0F01830030B31330932230B01030B21085439058
:10019200512F80A00201CF0201FF0201E7020217E4
:1001A2005165C2B47590FF808BC2B4514120931B3C
:1001B2008544905141209313854590514120930BE2
:0F01C20085469051412093038547902100C2B498
:0F01D10051538547905153854690515385459022
:1001E00051538544902100C2B451538544905153DA
:0F01F00085459051538546905153854790210086
:0E01FF00C2B4516585479051658546905165A3
:0E020D0085459051658544902100C2B451652D
:0F021B00854490516585459051658546905165A4
:0F022A008547902100C28E758D86758BF5D28E1B
:10023900308FFDC28FC28E22C28E758DC3758B9889
:0F024900D28E308FFDC28FC28E22C28E758DF085
:0F025800758BDAD28E308FFDC28FC28E22C28E8E
:10026700758DFC758B36D28E308FFDC28FC28E2274
:00000001FF
